{"abi":[{"type":"function","name":"fill","inputs":[{"name":"outputs","type":"tuple[]","internalType":"struct Output[]","components":[{"name":"token","type":"address","internalType":"address"},{"name":"amount","type":"uint256","internalType":"uint256"},{"name":"recipient","type":"address","internalType":"address"},{"name":"chainId","type":"uint32","internalType":"uint32"}]}],"outputs":[],"stateMutability":"payable"},{"type":"event","name":"Filled","inputs":[{"name":"outputs","type":"tuple[]","indexed":false,"internalType":"struct Output[]","components":[{"name":"token","type":"address","internalType":"address"},{"name":"amount","type":"uint256","internalType":"uint256"},{"name":"recipient","type":"address","internalType":"address"},{"name":"chainId","type":"uint32","internalType":"uint32"}]}],"anonymous":false}],"bytecode":{"object":"0x6080604052348015600e575f80fd5b506104dc8061001c5f395ff3fe60806040526004361061001d575f3560e01c8063897bc0d614610021575b5f80fd5b61003461002f3660046102c6565b610036565b005b345f5b8251811015610201575f6001600160a01b031683828151811061005e5761005e6103cb565b60200260200101515f01516001600160a01b03160361011857828181518110610089576100896103cb565b602002602001015160200151826100a091906103df565b91508281815181106100b4576100b46103cb565b6020026020010151604001516001600160a01b03166108fc8483815181106100de576100de6103cb565b60200260200101516020015190811502906040515f60405180830381858888f19350505050158015610112573d5f803e3d5ffd5b506101f9565b82818151811061012a5761012a6103cb565b60200260200101515f01516001600160a01b03166323b872dd33858481518110610156576101566103cb565b602002602001015160400151868581518110610174576101746103cb565b60209081029190910181015101516040516001600160e01b031960e086901b1681526001600160a01b03938416600482015292909116602483015260448201526064016020604051808303815f875af11580156101d3573d5f803e3d5ffd5b505050506040513d601f19601f820116820180604052508101906101f79190610404565b505b600101610039565b507f14b3027353aba71f468d178fdede9ac211a25ae484028823bce1e6700e58e62482604051610231919061042a565b60405180910390a15050565b634e487b7160e01b5f52604160045260245ffd5b6040516080810167ffffffffffffffff811182821017156102745761027461023d565b60405290565b604051601f8201601f1916810167ffffffffffffffff811182821017156102a3576102a361023d565b604052919050565b80356001600160a01b03811681146102c1575f80fd5b919050565b5f602082840312156102d6575f80fd5b813567ffffffffffffffff8111156102ec575f80fd5b8201601f810184136102fc575f80fd5b803567ffffffffffffffff8111156103165761031661023d565b61032560208260051b0161027a565b8082825260208201915060208360071b850101925086831115610346575f80fd5b6020840193505b828410156103c15760808488031215610364575f80fd5b61036c610251565b610375856102ab565b81526020850135602082015261038d604086016102ab565b6040820152606085013563ffffffff811681146103a8575f80fd5b606082015282526080939093019260209091019061034d565b9695505050505050565b634e487b7160e01b5f52603260045260245ffd5b818103818111156103fe57634e487b7160e01b5f52601160045260245ffd5b92915050565b5f60208284031215610414575f80fd5b81518015158114610423575f80fd5b9392505050565b602080825282518282018190525f918401906040840190835b8181101561049b57835180516001600160a01b039081168552602080830151818701526040808401519092169186019190915260609182015163ffffffff169185019190915290930192608090920191600101610443565b50909594505050505056fea2646970667358221220f05d48d6bf39e7ed04337bd026b92719c4c0fa6a8e901050c69a0a6601f613e764736f6c634300081a0033","linkReferences":{}},"methodIdentifiers":{"fill((address,uint256,address,uint32)[])":"897bc0d6"},"id":27}