{
    "abi": [
        {
            "type": "constructor",
            "inputs": [
                {
                    "name": "_defaultRollupChainId",
                    "type": "uint256",
                    "internalType": "uint256"
                },
                {
                    "name": "_tokenAdmin",
                    "type": "address",
                    "internalType": "address"
                },
                {
                    "name": "initialEnterTokens",
                    "type": "address[]",
                    "internalType": "address[]"
                }
            ],
            "stateMutability": "nonpayable"
        },
        {
            "type": "fallback",
            "stateMutability": "payable"
        },
        {
            "type": "receive",
            "stateMutability": "payable"
        },
        {
            "type": "function",
            "name": "canEnter",
            "inputs": [
                {
                    "name": "",
                    "type": "address",
                    "internalType": "address"
                }
            ],
            "outputs": [
                {
                    "name": "",
                    "type": "bool",
                    "internalType": "bool"
                }
            ],
            "stateMutability": "view"
        },
        {
            "type": "function",
            "name": "configureEnter",
            "inputs": [
                {
                    "name": "token",
                    "type": "address",
                    "internalType": "address"
                },
                {
                    "name": "_canEnter",
                    "type": "bool",
                    "internalType": "bool"
                }
            ],
            "outputs": [],
            "stateMutability": "nonpayable"
        },
        {
            "type": "function",
            "name": "defaultRollupChainId",
            "inputs": [],
            "outputs": [
                {
                    "name": "",
                    "type": "uint256",
                    "internalType": "uint256"
                }
            ],
            "stateMutability": "view"
        },
        {
            "type": "function",
            "name": "enter",
            "inputs": [
                {
                    "name": "rollupRecipient",
                    "type": "address",
                    "internalType": "address"
                }
            ],
            "outputs": [],
            "stateMutability": "payable"
        },
        {
            "type": "function",
            "name": "enter",
            "inputs": [
                {
                    "name": "rollupChainId",
                    "type": "uint256",
                    "internalType": "uint256"
                },
                {
                    "name": "rollupRecipient",
                    "type": "address",
                    "internalType": "address"
                }
            ],
            "outputs": [],
            "stateMutability": "payable"
        },
        {
            "type": "function",
            "name": "enterToken",
            "inputs": [
                {
                    "name": "rollupChainId",
                    "type": "uint256",
                    "internalType": "uint256"
                },
                {
                    "name": "rollupRecipient",
                    "type": "address",
                    "internalType": "address"
                },
                {
                    "name": "token",
                    "type": "address",
                    "internalType": "address"
                },
                {
                    "name": "amount",
                    "type": "uint256",
                    "internalType": "uint256"
                }
            ],
            "outputs": [],
            "stateMutability": "nonpayable"
        },
        {
            "type": "function",
            "name": "enterToken",
            "inputs": [
                {
                    "name": "rollupRecipient",
                    "type": "address",
                    "internalType": "address"
                },
                {
                    "name": "token",
                    "type": "address",
                    "internalType": "address"
                },
                {
                    "name": "amount",
                    "type": "uint256",
                    "internalType": "uint256"
                }
            ],
            "outputs": [],
            "stateMutability": "nonpayable"
        },
        {
            "type": "function",
            "name": "enterTransact",
            "inputs": [
                {
                    "name": "rollupChainId",
                    "type": "uint256",
                    "internalType": "uint256"
                },
                {
                    "name": "etherRecipient",
                    "type": "address",
                    "internalType": "address"
                },
                {
                    "name": "to",
                    "type": "address",
                    "internalType": "address"
                },
                {
                    "name": "data",
                    "type": "bytes",
                    "internalType": "bytes"
                },
                {
                    "name": "value",
                    "type": "uint256",
                    "internalType": "uint256"
                },
                {
                    "name": "gas",
                    "type": "uint256",
                    "internalType": "uint256"
                },
                {
                    "name": "maxFeePerGas",
                    "type": "uint256",
                    "internalType": "uint256"
                }
            ],
            "outputs": [],
            "stateMutability": "payable"
        },
        {
            "type": "function",
            "name": "tokenAdmin",
            "inputs": [],
            "outputs": [
                {
                    "name": "",
                    "type": "address",
                    "internalType": "address"
                }
            ],
            "stateMutability": "view"
        },
        {
            "type": "function",
            "name": "transact",
            "inputs": [
                {
                    "name": "to",
                    "type": "address",
                    "internalType": "address"
                },
                {
                    "name": "data",
                    "type": "bytes",
                    "internalType": "bytes"
                },
                {
                    "name": "value",
                    "type": "uint256",
                    "internalType": "uint256"
                },
                {
                    "name": "gas",
                    "type": "uint256",
                    "internalType": "uint256"
                },
                {
                    "name": "maxFeePerGas",
                    "type": "uint256",
                    "internalType": "uint256"
                }
            ],
            "outputs": [],
            "stateMutability": "payable"
        },
        {
            "type": "function",
            "name": "transact",
            "inputs": [
                {
                    "name": "rollupChainId",
                    "type": "uint256",
                    "internalType": "uint256"
                },
                {
                    "name": "to",
                    "type": "address",
                    "internalType": "address"
                },
                {
                    "name": "data",
                    "type": "bytes",
                    "internalType": "bytes"
                },
                {
                    "name": "value",
                    "type": "uint256",
                    "internalType": "uint256"
                },
                {
                    "name": "gas",
                    "type": "uint256",
                    "internalType": "uint256"
                },
                {
                    "name": "maxFeePerGas",
                    "type": "uint256",
                    "internalType": "uint256"
                }
            ],
            "outputs": [],
            "stateMutability": "payable"
        },
        {
            "type": "function",
            "name": "withdraw",
            "inputs": [
                {
                    "name": "token",
                    "type": "address",
                    "internalType": "address"
                },
                {
                    "name": "recipient",
                    "type": "address",
                    "internalType": "address"
                },
                {
                    "name": "amount",
                    "type": "uint256",
                    "internalType": "uint256"
                }
            ],
            "outputs": [],
            "stateMutability": "nonpayable"
        },
        {
            "type": "event",
            "name": "Enter",
            "inputs": [
                {
                    "name": "rollupChainId",
                    "type": "uint256",
                    "indexed": true,
                    "internalType": "uint256"
                },
                {
                    "name": "rollupRecipient",
                    "type": "address",
                    "indexed": true,
                    "internalType": "address"
                },
                {
                    "name": "amount",
                    "type": "uint256",
                    "indexed": false,
                    "internalType": "uint256"
                }
            ],
            "anonymous": false
        },
        {
            "type": "event",
            "name": "EnterConfigured",
            "inputs": [
                {
                    "name": "token",
                    "type": "address",
                    "indexed": true,
                    "internalType": "address"
                },
                {
                    "name": "canEnter",
                    "type": "bool",
                    "indexed": true,
                    "internalType": "bool"
                }
            ],
            "anonymous": false
        },
        {
            "type": "event",
            "name": "EnterToken",
            "inputs": [
                {
                    "name": "rollupChainId",
                    "type": "uint256",
                    "indexed": true,
                    "internalType": "uint256"
                },
                {
                    "name": "rollupRecipient",
                    "type": "address",
                    "indexed": true,
                    "internalType": "address"
                },
                {
                    "name": "token",
                    "type": "address",
                    "indexed": true,
                    "internalType": "address"
                },
                {
                    "name": "amount",
                    "type": "uint256",
                    "indexed": false,
                    "internalType": "uint256"
                }
            ],
            "anonymous": false
        },
        {
            "type": "event",
            "name": "Transact",
            "inputs": [
                {
                    "name": "rollupChainId",
                    "type": "uint256",
                    "indexed": true,
                    "internalType": "uint256"
                },
                {
                    "name": "sender",
                    "type": "address",
                    "indexed": true,
                    "internalType": "address"
                },
                {
                    "name": "to",
                    "type": "address",
                    "indexed": true,
                    "internalType": "address"
                },
                {
                    "name": "data",
                    "type": "bytes",
                    "indexed": false,
                    "internalType": "bytes"
                },
                {
                    "name": "value",
                    "type": "uint256",
                    "indexed": false,
                    "internalType": "uint256"
                },
                {
                    "name": "gas",
                    "type": "uint256",
                    "indexed": false,
                    "internalType": "uint256"
                },
                {
                    "name": "maxFeePerGas",
                    "type": "uint256",
                    "indexed": false,
                    "internalType": "uint256"
                }
            ],
            "anonymous": false
        },
        {
            "type": "event",
            "name": "Withdrawal",
            "inputs": [
                {
                    "name": "token",
                    "type": "address",
                    "indexed": true,
                    "internalType": "address"
                },
                {
                    "name": "recipient",
                    "type": "address",
                    "indexed": true,
                    "internalType": "address"
                },
                {
                    "name": "amount",
                    "type": "uint256",
                    "indexed": false,
                    "internalType": "uint256"
                }
            ],
            "anonymous": false
        },
        {
            "type": "error",
            "name": "DisallowedEnter",
            "inputs": [
                {
                    "name": "token",
                    "type": "address",
                    "internalType": "address"
                }
            ]
        },
        {
            "type": "error",
            "name": "OnlyTokenAdmin",
            "inputs": []
        }
    ],
    "bytecode": {
        "object": "0x60c060405234801561000f575f80fd5b50604051610cf4380380610cf483398101604081905261002e91610108565b60808390526001600160a01b03821660a0525f5b815181101561007d57610075828281518110610060576100606101ee565b6020026020010151600161008660201b60201c565b600101610042565b50505050610202565b6001600160a01b0382165f81815260208190526040808220805460ff191685151590811790915590519092917f2f8601534249821eb3b2cf9f1d88960ce5b7feb89b9e4a117d2ac7725c56539391a35050565b80516001600160a01b03811681146100ef575f80fd5b919050565b634e487b7160e01b5f52604160045260245ffd5b5f805f6060848603121561011a575f80fd5b8351925061012a602085016100d9565b60408501519092506001600160401b03811115610145575f80fd5b8401601f81018613610155575f80fd5b80516001600160401b0381111561016e5761016e6100f4565b604051600582901b90603f8201601f191681016001600160401b038111828210171561019c5761019c6100f4565b6040529182526020818401810192908101898411156101b9575f80fd5b6020850194505b838510156101df576101d1856100d9565b8152602094850194016101c0565b50809450505050509250925092565b634e487b7160e01b5f52603260045260245ffd5b60805160a051610aa26102525f395f818161021d015281816104a101526105b201525f818160b40152818160e0015281816101aa015281816104190152818161044a015261057f0152610aa25ff3fe6080604052600436106100aa575f3560e01c8063b32ed95e11610063578063b32ed95e146101ed578063b7e1917c1461020c578063bf10d65214610257578063d014c01f1461026a578063d9caed121461027d578063ea3b9ba11461029c576100db565b806322ac388514610105578063416ef5a8146101245780634f8b4a3c146101435780637d2ce1fc1461018657806395577b7214610199578063a5fbe5e4146101da576100db565b366100db576100d97f0000000000000000000000000000000000000000000000000000000000000000336102aa565b005b6100d97f0000000000000000000000000000000000000000000000000000000000000000336102aa565b348015610110575f80fd5b506100d961011f366004610769565b6102fd565b34801561012f575f80fd5b506100d961013e3660046107aa565b610414565b34801561014e575f80fd5b5061017161015d3660046107e4565b5f6020819052908152604090205460ff1681565b60405190151581526020015b60405180910390f35b6100d9610194366004610849565b610445565b3480156101a4575f80fd5b506101cc7f000000000000000000000000000000000000000000000000000000000000000081565b60405190815260200161017d565b6100d96101e83660046108b1565b61047d565b3480156101f8575f80fd5b506100d961020736600461092d565b610496565b348015610217575f80fd5b5061023f7f000000000000000000000000000000000000000000000000000000000000000081565b6040516001600160a01b03909116815260200161017d565b6100d9610265366004610962565b610512565b6100d96102783660046107e4565b61057a565b348015610288575f80fd5b506100d96102973660046107aa565b6105a7565b6100d96102aa3660046109e2565b345f036102b5575050565b806001600160a01b0316827f5f67e0a44fbb8ec0f3794c6687c657244a50a7da2411d14707aa219d86b85492346040516102f191815260200190565b60405180910390a35050565b6001600160a01b0382165f9081526020819052604090205460ff166103445760405163087fe76b60e01b81526001600160a01b038316600482015260240160405180910390fd5b801561040e576040516323b872dd60e01b8152336004820152306024820152604481018290526001600160a01b038316906323b872dd906064016020604051808303815f875af115801561039a573d5f803e3d5ffd5b505050506040513d601f19601f820116820180604052508101906103be9190610a0c565b50816001600160a01b0316836001600160a01b0316857f918d96675770fc73e96feacdd04b31ed125e0e5e0223938cd0043a42228a49e48460405161040591815260200190565b60405180910390a45b50505050565b6104407f00000000000000000000000000000000000000000000000000000000000000008484846102fd565b505050565b6104757f000000000000000000000000000000000000000000000000000000000000000033888888888888610512565b505050505050565b61048d8733888888888888610512565b50505050505050565b336001600160a01b037f000000000000000000000000000000000000000000000000000000000000000016146104df576040516310edd0bf60e11b815260040160405180910390fd5b6001600160a01b0382165f9081526020819052604090205460ff1615158115151461050e5761050e82826106fb565b5050565b61051c88886102aa565b856001600160a01b0316336001600160a01b0316897fcde3b17064c2ae615c0eba2cb3b0a313095890a0ff72076a6242ecdb67d972c28888888888604051610568959493929190610a27565b60405180910390a45050505050505050565b6105a47f0000000000000000000000000000000000000000000000000000000000000000826102aa565b50565b336001600160a01b037f000000000000000000000000000000000000000000000000000000000000000016146105f0576040516310edd0bf60e11b815260040160405180910390fd5b6001600160a01b038316610637576040516001600160a01b0383169082156108fc029083905f818181858888f19350505050158015610631573d5f803e3d5ffd5b506106a9565b60405163a9059cbb60e01b81526001600160a01b0383811660048301526024820183905284169063a9059cbb906044016020604051808303815f875af1158015610683573d5f803e3d5ffd5b505050506040513d601f19601f820116820180604052508101906106a79190610a0c565b505b816001600160a01b0316836001600160a01b03167f2717ead6b9200dd235aad468c9809ea400fe33ac69b5bfaa6d3e90fc922b6398836040516106ee91815260200190565b60405180910390a3505050565b6001600160a01b0382165f81815260208190526040808220805460ff191685151590811790915590519092917f2f8601534249821eb3b2cf9f1d88960ce5b7feb89b9e4a117d2ac7725c56539391a35050565b80356001600160a01b0381168114610764575f80fd5b919050565b5f805f806080858703121561077c575f80fd5b8435935061078c6020860161074e565b925061079a6040860161074e565b9396929550929360600135925050565b5f805f606084860312156107bc575f80fd5b6107c58461074e565b92506107d36020850161074e565b929592945050506040919091013590565b5f602082840312156107f4575f80fd5b6107fd8261074e565b9392505050565b5f8083601f840112610814575f80fd5b50813567ffffffffffffffff81111561082b575f80fd5b602083019150836020828501011115610842575f80fd5b9250929050565b5f805f805f8060a0878903121561085e575f80fd5b6108678761074e565b9550602087013567ffffffffffffffff811115610882575f80fd5b61088e89828a01610804565b979a90995096976040810135976060820135975060809091013595509350505050565b5f805f805f805f60c0888a0312156108c7575f80fd5b873596506108d76020890161074e565b9550604088013567ffffffffffffffff8111156108f2575f80fd5b6108fe8a828b01610804565b989b979a50986060810135976080820135975060a09091013595509350505050565b80151581146105a4575f80fd5b5f806040838503121561093e575f80fd5b6109478361074e565b9150602083013561095781610920565b809150509250929050565b5f805f805f805f8060e0898b031215610979575f80fd5b8835975061098960208a0161074e565b965061099760408a0161074e565b9550606089013567ffffffffffffffff8111156109b2575f80fd5b6109be8b828c01610804565b999c989b50969996989760808801359760a0810135975060c0013595509350505050565b5f80604083850312156109f3575f80fd5b82359150610a036020840161074e565b90509250929050565b5f60208284031215610a1c575f80fd5b81516107fd81610920565b60808152846080820152848660a08301375f60a086830101525f60a0601f19601f8801168301019050846020830152836040830152826060830152969550505050505056fea26469706673582212202b8280f8ae3a25ffa1c1d42bdbb9958189a48116bd6f9c2636f23e725d8420f864736f6c634300081a0033",
        "linkReferences": {}
    },
    "methodIdentifiers": {
        "canEnter(address)": "4f8b4a3c",
        "configureEnter(address,bool)": "b32ed95e",
        "defaultRollupChainId()": "95577b72",
        "enter(address)": "d014c01f",
        "enter(uint256,address)": "ea3b9ba1",
        "enterToken(address,address,uint256)": "416ef5a8",
        "enterToken(uint256,address,address,uint256)": "22ac3885",
        "enterTransact(uint256,address,address,bytes,uint256,uint256,uint256)": "bf10d652",
        "tokenAdmin()": "b7e1917c",
        "transact(address,bytes,uint256,uint256,uint256)": "7d2ce1fc",
        "transact(uint256,address,bytes,uint256,uint256,uint256)": "a5fbe5e4",
        "withdraw(address,address,uint256)": "d9caed12"
    },
    "id": 28
}