{
    "abi": [
        {
            "type": "function",
            "name": "fill",
            "inputs": [
                {
                    "name": "outputs",
                    "type": "tuple[]",
                    "internalType": "struct Output[]",
                    "components": [
                        {
                            "name": "token",
                            "type": "address",
                            "internalType": "address"
                        },
                        {
                            "name": "amount",
                            "type": "uint256",
                            "internalType": "uint256"
                        },
                        {
                            "name": "recipient",
                            "type": "address",
                            "internalType": "address"
                        },
                        {
                            "name": "chainId",
                            "type": "uint32",
                            "internalType": "uint32"
                        }
                    ]
                }
            ],
            "outputs": [],
            "stateMutability": "payable"
        },
        {
            "type": "function",
            "name": "initiate",
            "inputs": [
                {
                    "name": "deadline",
                    "type": "uint256",
                    "internalType": "uint256"
                },
                {
                    "name": "inputs",
                    "type": "tuple[]",
                    "internalType": "struct Input[]",
                    "components": [
                        {
                            "name": "token",
                            "type": "address",
                            "internalType": "address"
                        },
                        {
                            "name": "amount",
                            "type": "uint256",
                            "internalType": "uint256"
                        }
                    ]
                },
                {
                    "name": "outputs",
                    "type": "tuple[]",
                    "internalType": "struct Output[]",
                    "components": [
                        {
                            "name": "token",
                            "type": "address",
                            "internalType": "address"
                        },
                        {
                            "name": "amount",
                            "type": "uint256",
                            "internalType": "uint256"
                        },
                        {
                            "name": "recipient",
                            "type": "address",
                            "internalType": "address"
                        },
                        {
                            "name": "chainId",
                            "type": "uint32",
                            "internalType": "uint32"
                        }
                    ]
                }
            ],
            "outputs": [],
            "stateMutability": "payable"
        },
        {
            "type": "function",
            "name": "sweep",
            "inputs": [
                {
                    "name": "recipient",
                    "type": "address",
                    "internalType": "address"
                },
                {
                    "name": "token",
                    "type": "address",
                    "internalType": "address"
                }
            ],
            "outputs": [],
            "stateMutability": "nonpayable"
        },
        {
            "type": "event",
            "name": "Filled",
            "inputs": [
                {
                    "name": "outputs",
                    "type": "tuple[]",
                    "indexed": false,
                    "internalType": "struct Output[]",
                    "components": [
                        {
                            "name": "token",
                            "type": "address",
                            "internalType": "address"
                        },
                        {
                            "name": "amount",
                            "type": "uint256",
                            "internalType": "uint256"
                        },
                        {
                            "name": "recipient",
                            "type": "address",
                            "internalType": "address"
                        },
                        {
                            "name": "chainId",
                            "type": "uint32",
                            "internalType": "uint32"
                        }
                    ]
                }
            ],
            "anonymous": false
        },
        {
            "type": "event",
            "name": "Order",
            "inputs": [
                {
                    "name": "deadline",
                    "type": "uint256",
                    "indexed": false,
                    "internalType": "uint256"
                },
                {
                    "name": "inputs",
                    "type": "tuple[]",
                    "indexed": false,
                    "internalType": "struct Input[]",
                    "components": [
                        {
                            "name": "token",
                            "type": "address",
                            "internalType": "address"
                        },
                        {
                            "name": "amount",
                            "type": "uint256",
                            "internalType": "uint256"
                        }
                    ]
                },
                {
                    "name": "outputs",
                    "type": "tuple[]",
                    "indexed": false,
                    "internalType": "struct Output[]",
                    "components": [
                        {
                            "name": "token",
                            "type": "address",
                            "internalType": "address"
                        },
                        {
                            "name": "amount",
                            "type": "uint256",
                            "internalType": "uint256"
                        },
                        {
                            "name": "recipient",
                            "type": "address",
                            "internalType": "address"
                        },
                        {
                            "name": "chainId",
                            "type": "uint32",
                            "internalType": "uint32"
                        }
                    ]
                }
            ],
            "anonymous": false
        },
        {
            "type": "event",
            "name": "Sweep",
            "inputs": [
                {
                    "name": "recipient",
                    "type": "address",
                    "indexed": true,
                    "internalType": "address"
                },
                {
                    "name": "token",
                    "type": "address",
                    "indexed": true,
                    "internalType": "address"
                },
                {
                    "name": "amount",
                    "type": "uint256",
                    "indexed": false,
                    "internalType": "uint256"
                }
            ],
            "anonymous": false
        },
        {
            "type": "error",
            "name": "OnlyBuilder",
            "inputs": []
        },
        {
            "type": "error",
            "name": "OrderExpired",
            "inputs": []
        }
    ],
    "bytecode": {
        "object": "0x6080604052348015600e575f80fd5b50610a5d8061001c5f395ff3fe608060405260043610610033575f3560e01c8063897bc0d614610037578063b8dc491b1461004c578063f9c504411461006b575b5f80fd5b61004a61004536600461075b565b61007e565b005b348015610057575f80fd5b5061004a610066366004610795565b610285565b61004a6100793660046107c6565b61041e565b345f5b8251811015610249575f6001600160a01b03168382815181106100a6576100a66108b6565b60200260200101515f01516001600160a01b031603610160578281815181106100d1576100d16108b6565b602002602001015160200151826100e891906108ca565b91508281815181106100fc576100fc6108b6565b6020026020010151604001516001600160a01b03166108fc848381518110610126576101266108b6565b60200260200101516020015190811502906040515f60405180830381858888f1935050505015801561015a573d5f803e3d5ffd5b50610241565b828181518110610172576101726108b6565b60200260200101515f01516001600160a01b03166323b872dd3385848151811061019e5761019e6108b6565b6020026020010151604001518685815181106101bc576101bc6108b6565b60209081029190910181015101516040516001600160e01b031960e086901b1681526001600160a01b03938416600482015292909116602483015260448201526064016020604051808303815f875af115801561021b573d5f803e3d5ffd5b505050506040513d601f19601f8201168201806040525081019061023f91906108ef565b505b600101610081565b507f14b3027353aba71f468d178fdede9ac211a25ae484028823bce1e6700e58e624826040516102799190610989565b60405180910390a15050565b3341146102a55760405163357a555d60e01b815260040160405180910390fd5b5f6001600160a01b0382166102f0575060405147906001600160a01b0384169082156108fc029083905f818181858888f193505050501580156102ea573d5f803e3d5ffd5b506103cc565b6040516370a0823160e01b81523060048201526001600160a01b038316906370a0823190602401602060405180830381865afa158015610332573d5f803e3d5ffd5b505050506040513d601f19601f82011682018060405250810190610356919061099b565b60405163a9059cbb60e01b81526001600160a01b038581166004830152602482018390529192509083169063a9059cbb906044016020604051808303815f875af11580156103a6573d5f803e3d5ffd5b505050506040513d601f19601f820116820180604052508101906103ca91906108ef565b505b816001600160a01b0316836001600160a01b03167fed679328aebf74ede77ae09efcf36e90244f83643dadac1c2d9f0b21a46f6ab78360405161041191815260200190565b60405180910390a3505050565b8242111561043f576040516362b439dd60e11b815260040160405180910390fd5b61044882610488565b7f80c9b8738a5ff299b770efb55e4372a5fc655294aca7145b3c529c2d89732d6283838360405161047b939291906109b2565b60405180910390a1505050565b345f5b82518110156105c5575f6001600160a01b03168382815181106104b0576104b06108b6565b60200260200101515f01516001600160a01b0316036104f9578281815181106104db576104db6108b6565b602002602001015160200151826104f291906108ca565b91506105bd565b82818151811061050b5761050b6108b6565b60200260200101515f01516001600160a01b03166323b872dd3330868581518110610538576105386108b6565b60209081029190910181015101516040516001600160e01b031960e086901b1681526001600160a01b03938416600482015292909116602483015260448201526064016020604051808303815f875af1158015610597573d5f803e3d5ffd5b505050506040513d601f19601f820116820180604052508101906105bb91906108ef565b505b60010161048b565b505050565b634e487b7160e01b5f52604160045260245ffd5b6040516080810167ffffffffffffffff81118282101715610601576106016105ca565b60405290565b6040805190810167ffffffffffffffff81118282101715610601576106016105ca565b604051601f8201601f1916810167ffffffffffffffff81118282101715610653576106536105ca565b604052919050565b5f67ffffffffffffffff821115610674576106746105ca565b5060051b60200190565b80356001600160a01b0381168114610694575f80fd5b919050565b5f82601f8301126106a8575f80fd5b81356106bb6106b68261065b565b61062a565b8082825260208201915060208360071b8601019250858311156106dc575f80fd5b602085015b8381101561075157608081880312156106f8575f80fd5b6107006105de565b6107098261067e565b8152602082810135908201526107216040830161067e565b6040820152606082013563ffffffff8116811461073c575f80fd5b606082015283526020909201916080016106e1565b5095945050505050565b5f6020828403121561076b575f80fd5b813567ffffffffffffffff811115610781575f80fd5b61078d84828501610699565b949350505050565b5f80604083850312156107a6575f80fd5b6107af8361067e565b91506107bd6020840161067e565b90509250929050565b5f805f606084860312156107d8575f80fd5b83359250602084013567ffffffffffffffff8111156107f5575f80fd5b8401601f81018613610805575f80fd5b80356108136106b68261065b565b8082825260208201915060208360061b850101925088831115610834575f80fd5b6020840193505b82841015610882576040848a031215610852575f80fd5b61085a610607565b6108638561067e565b815260208581013581830152908352604090940193919091019061083b565b9450505050604084013567ffffffffffffffff8111156108a0575f80fd5b6108ac86828701610699565b9150509250925092565b634e487b7160e01b5f52603260045260245ffd5b818103818111156108e957634e487b7160e01b5f52601160045260245ffd5b92915050565b5f602082840312156108ff575f80fd5b8151801515811461090e575f80fd5b9392505050565b5f8151808452602084019350602083015f5b8281101561097f57815180516001600160a01b039081168852602080830151818a01526040808401519092169189019190915260609182015163ffffffff169188019190915260809096019590910190600101610927565b5093949350505050565b602081525f61090e6020830184610915565b5f602082840312156109ab575f80fd5b5051919050565b5f60608201858352606060208401528085518083526080850191506020870192505f5b81811015610a0857835180516001600160a01b0316845260209081015181850152909301926040909201916001016109d5565b50508381036040850152610a1c8186610915565b97965050505050505056fea2646970667358221220481f12efa44fdc34d5c1574059dacbcab95236bd876bf022654c352386303c5564736f6c634300081a0033",
        "linkReferences": {}
    },
    "methodIdentifiers": {
        "fill((address,uint256,address,uint32)[])": "897bc0d6",
        "initiate(uint256,(address,uint256)[],(address,uint256,address,uint32)[])": "f9c50441",
        "sweep(address,address)": "b8dc491b"
    },
    "id": 27
}