{
    "abi": [
        {
            "type": "constructor",
            "inputs": [
                {
                    "name": "_sequencerAdmin",
                    "type": "address",
                    "internalType": "address"
                }
            ],
            "stateMutability": "nonpayable"
        },
        {
            "type": "function",
            "name": "addSequencer",
            "inputs": [
                {
                    "name": "sequencer",
                    "type": "address",
                    "internalType": "address"
                }
            ],
            "outputs": [],
            "stateMutability": "nonpayable"
        },
        {
            "type": "function",
            "name": "blockCommitment",
            "inputs": [
                {
                    "name": "header",
                    "type": "tuple",
                    "internalType": "struct Zenith.BlockHeader",
                    "components": [
                        {
                            "name": "rollupChainId",
                            "type": "uint256",
                            "internalType": "uint256"
                        },
                        {
                            "name": "hostBlockNumber",
                            "type": "uint256",
                            "internalType": "uint256"
                        },
                        {
                            "name": "gasLimit",
                            "type": "uint256",
                            "internalType": "uint256"
                        },
                        {
                            "name": "rewardAddress",
                            "type": "address",
                            "internalType": "address"
                        },
                        {
                            "name": "blockDataHash",
                            "type": "bytes32",
                            "internalType": "bytes32"
                        }
                    ]
                }
            ],
            "outputs": [
                {
                    "name": "commit",
                    "type": "bytes32",
                    "internalType": "bytes32"
                }
            ],
            "stateMutability": "view"
        },
        {
            "type": "function",
            "name": "deployBlockNumber",
            "inputs": [],
            "outputs": [
                {
                    "name": "",
                    "type": "uint256",
                    "internalType": "uint256"
                }
            ],
            "stateMutability": "view"
        },
        {
            "type": "function",
            "name": "isSequencer",
            "inputs": [
                {
                    "name": "",
                    "type": "address",
                    "internalType": "address"
                }
            ],
            "outputs": [
                {
                    "name": "",
                    "type": "bool",
                    "internalType": "bool"
                }
            ],
            "stateMutability": "view"
        },
        {
            "type": "function",
            "name": "lastSubmittedAtBlock",
            "inputs": [
                {
                    "name": "",
                    "type": "uint256",
                    "internalType": "uint256"
                }
            ],
            "outputs": [
                {
                    "name": "",
                    "type": "uint256",
                    "internalType": "uint256"
                }
            ],
            "stateMutability": "view"
        },
        {
            "type": "function",
            "name": "removeSequencer",
            "inputs": [
                {
                    "name": "sequencer",
                    "type": "address",
                    "internalType": "address"
                }
            ],
            "outputs": [],
            "stateMutability": "nonpayable"
        },
        {
            "type": "function",
            "name": "sequencerAdmin",
            "inputs": [],
            "outputs": [
                {
                    "name": "",
                    "type": "address",
                    "internalType": "address"
                }
            ],
            "stateMutability": "view"
        },
        {
            "type": "function",
            "name": "submitBlock",
            "inputs": [
                {
                    "name": "header",
                    "type": "tuple",
                    "internalType": "struct Zenith.BlockHeader",
                    "components": [
                        {
                            "name": "rollupChainId",
                            "type": "uint256",
                            "internalType": "uint256"
                        },
                        {
                            "name": "hostBlockNumber",
                            "type": "uint256",
                            "internalType": "uint256"
                        },
                        {
                            "name": "gasLimit",
                            "type": "uint256",
                            "internalType": "uint256"
                        },
                        {
                            "name": "rewardAddress",
                            "type": "address",
                            "internalType": "address"
                        },
                        {
                            "name": "blockDataHash",
                            "type": "bytes32",
                            "internalType": "bytes32"
                        }
                    ]
                },
                {
                    "name": "v",
                    "type": "uint8",
                    "internalType": "uint8"
                },
                {
                    "name": "r",
                    "type": "bytes32",
                    "internalType": "bytes32"
                },
                {
                    "name": "s",
                    "type": "bytes32",
                    "internalType": "bytes32"
                },
                {
                    "name": "",
                    "type": "bytes",
                    "internalType": "bytes"
                }
            ],
            "outputs": [],
            "stateMutability": "nonpayable"
        },
        {
            "type": "event",
            "name": "BlockSubmitted",
            "inputs": [
                {
                    "name": "sequencer",
                    "type": "address",
                    "indexed": true,
                    "internalType": "address"
                },
                {
                    "name": "rollupChainId",
                    "type": "uint256",
                    "indexed": true,
                    "internalType": "uint256"
                },
                {
                    "name": "gasLimit",
                    "type": "uint256",
                    "indexed": false,
                    "internalType": "uint256"
                },
                {
                    "name": "rewardAddress",
                    "type": "address",
                    "indexed": false,
                    "internalType": "address"
                },
                {
                    "name": "blockDataHash",
                    "type": "bytes32",
                    "indexed": false,
                    "internalType": "bytes32"
                }
            ],
            "anonymous": false
        },
        {
            "type": "event",
            "name": "SequencerSet",
            "inputs": [
                {
                    "name": "sequencer",
                    "type": "address",
                    "indexed": true,
                    "internalType": "address"
                },
                {
                    "name": "permissioned",
                    "type": "bool",
                    "indexed": true,
                    "internalType": "bool"
                }
            ],
            "anonymous": false
        },
        {
            "type": "error",
            "name": "BadSignature",
            "inputs": [
                {
                    "name": "derivedSequencer",
                    "type": "address",
                    "internalType": "address"
                }
            ]
        },
        {
            "type": "error",
            "name": "IncorrectHostBlock",
            "inputs": []
        },
        {
            "type": "error",
            "name": "OneRollupBlockPerHostBlock",
            "inputs": []
        },
        {
            "type": "error",
            "name": "OnlySequencerAdmin",
            "inputs": []
        }
    ],
    "bytecode": {
        "object": "0x60a0604052348015600e575f80fd5b5060405161079b38038061079b833981016040819052602b91603e565b6001600160a01b0316608052435f556069565b5f60208284031215604d575f80fd5b81516001600160a01b03811681146062575f80fd5b9392505050565b60805161070c61008f5f395f81816101480152818161018d015261048e015261070c5ff3fe608060405234801561000f575f80fd5b5060043610610085575f3560e01c80638635c102116100585780638635c1021461010a57806388b673d31461011d5780638a33623114610130578063f9060fee14610143575f80fd5b8063206288d3146100895780636989ca7c146100a45780636d46e987146100b95780637e82bb01146100eb575b5f80fd5b6100915f5481565b6040519081526020015b60405180910390f35b6100b76100b236600461055b565b610182565b005b6100db6100c736600461055b565b60026020525f908152604090205460ff1681565b604051901515815260200161009b565b6100916100f936600461057b565b60016020525f908152604090205481565b610091610118366004610611565b610239565b6100b761012b36600461062b565b6102da565b6100b761013e36600461055b565b610483565b61016a7f000000000000000000000000000000000000000000000000000000000000000081565b6040516001600160a01b03909116815260200161009b565b336001600160a01b037f000000000000000000000000000000000000000000000000000000000000000016146101cb5760405163049a95bf60e41b815260040160405180910390fd5b6001600160a01b0381165f9081526002602052604090205460ff166101ed5750565b6001600160a01b0381165f81815260026020526040808220805460ff19169055519091907feb12a9a53eec138c91b27b4f912a257bd690c18fc8bde744be92a0365eb9b87e908390a350565b5f8046835f015184602001518560400151866060015187608001516040516020016102bb96959493929190710696e6974342e73657175656e6365722e76360741b8152601281019690965260328601949094526052850192909252607284015260601b6bffffffffffffffffffffffff1916609283015260a682015260c60190565b60408051601f1981840301815291905280516020909101209392505050565b856020015143146102fe5760405163b2d975db60e01b815260040160405180910390fd5b5f61030887610239565b604080515f8082526020820180845284905260ff8a169282019290925260608101889052608081018790529192509060019060a0016020604051602081039080840390855afa15801561035d573d5f803e3d5ffd5b5050604051601f1901519150506001600160a01b038116158061039857506001600160a01b0381165f9081526002602052604090205460ff16155b156103c557604051639a7d38d960e01b81526001600160a01b038216600482015260240160405180910390fd5b87515f908152600160205260409020544390036103f557604051632ce0494b60e01b815260040160405180910390fd5b87515f90815260016020526040908190204390558851818a015160608b015160808c0151935192936001600160a01b038616937ffe642e465ceaeb1c7f4cedaee76e84b12970fe1546683f8758525b3a0e2b44429361047193909290919283526001600160a01b03919091166020830152604082015260600190565b60405180910390a35050505050505050565b336001600160a01b037f000000000000000000000000000000000000000000000000000000000000000016146104cc5760405163049a95bf60e41b815260040160405180910390fd5b6001600160a01b0381165f9081526002602052604090205460ff16156104ef5750565b6001600160a01b0381165f81815260026020526040808220805460ff1916600190811790915590519092917feb12a9a53eec138c91b27b4f912a257bd690c18fc8bde744be92a0365eb9b87e91a350565b80356001600160a01b0381168114610556575f80fd5b919050565b5f6020828403121561056b575f80fd5b61057482610540565b9392505050565b5f6020828403121561058b575f80fd5b5035919050565b5f60a082840312156105a2575f80fd5b60405160a0810181811067ffffffffffffffff821117156105d157634e487b7160e01b5f52604160045260245ffd5b6040908152833582526020808501359083015283810135908201529050806105fb60608401610540565b6060820152608092830135920191909152919050565b5f60a08284031215610621575f80fd5b6105748383610592565b5f805f805f806101208789031215610641575f80fd5b61064b8888610592565b955060a087013560ff81168114610660575f80fd5b945060c0870135935060e0870135925061010087013567ffffffffffffffff81111561068a575f80fd5b8701601f8101891361069a575f80fd5b803567ffffffffffffffff8111156106b0575f80fd5b8960208284010111156106c1575f80fd5b6020820193508092505050929550929550929556fea2646970667358221220fbc9b830d3febdd07addb2891d12c48f72e385b7057967edb07bab98679d6b9364736f6c634300081a0033",
        "linkReferences": {}
    },
    "methodIdentifiers": {
        "addSequencer(address)": "8a336231",
        "blockCommitment((uint256,uint256,uint256,address,bytes32))": "8635c102",
        "deployBlockNumber()": "206288d3",
        "isSequencer(address)": "6d46e987",
        "lastSubmittedAtBlock(uint256)": "7e82bb01",
        "removeSequencer(address)": "6989ca7c",
        "sequencerAdmin()": "f9060fee",
        "submitBlock((uint256,uint256,uint256,address,bytes32),uint8,bytes32,bytes32,bytes)": "88b673d3"
    },
    "id": 29
}